:020000040800F2
:1000000000200020F90F0008C10F0008C70F0008EA
:1000100000000000000000000000000000000000E0
:10002000000000000000000000000000CD0F0008EC
:100030000000000000000000D70F0008E10F0008DA
:10004000491000080000000049100008491000088D
:10005000491000084910000849100008491000081C
:10006000000000004910000849100008491000086D
:10007000491000084910000849100008000000005D
:1000800049100008000000000000000049100008AE
:10009000000000004910000849100008491000083D
:1000A00049100008491000084910000849100008CC
:0800B0004910000800000000E7
:1000B80010B5064C2378002B07D1054B002B02D036
:1000C800044800E000BF0123237010BD1000002089
:1000D80000000000342E0008044B10B5002B03D09C
:1000E8000349044800E000BF10BDC04600000000FE
:1000F80014000020342E0008002243088B4274D3D9
:1001080003098B425FD3030A8B4244D3030B8B4210
:1001180028D3030C8B420DD3FF22090212BA030C19
:100128008B4202D31212090265D0030B8B4219D3FA
:1001380000E0090AC30B8B4201D3CB03C01A52411A
:10014800830B8B4201D38B03C01A5241430B8B4262
:1001580001D34B03C01A5241030B8B4201D30B034B
:10016800C01A5241C30A8B4201D3CB02C01A524172
:10017800830A8B4201D38B02C01A5241430A8B4235
:1001880001D34B02C01A5241030A8B4201D30B021E
:10019800C01A5241CDD2C3098B4201D3CB01C01A38
:1001A800524183098B4201D38B01C01A5241430942
:1001B8008B4201D34B01C01A524103098B4201D330
:1001C8000B01C01A5241C3088B4201D3CB00C01A9D
:1001D800524183088B4201D38B00C01A5241430815
:1001E8008B4201D34B00C01A5241411A00D201463A
:1001F800524110467047FFE701B5002000F0F0F8C3
:1002080002BDC0460029F7D076E7704703460B4386
:100218007FD4002243088B4274D303098B425FD3F7
:10022800030A8B4244D3030B8B4228D3030C8B4223
:100238000DD3FF22090212BA030C8B4202D3121209
:10024800090265D0030B8B4219D300E0090AC30BDE
:100258008B4201D3CB03C01A5241830B8B4201D38B
:100268008B03C01A5241430B8B4201D34B03C01A74
:100278005241030B8B4201D30B03C01A5241C30AEC
:100288008B4201D3CB02C01A5241830A8B4201D35D
:100298008B02C01A5241430A8B4201D34B02C01A47
:1002A8005241030A8B4201D30B02C01A5241CDD2EC
:1002B800C3098B4201D3CB01C01A524183098B4237
:1002C80001D38B01C01A524143098B4201D34B0120
:1002D800C01A524103098B4201D30B01C01A524183
:1002E800C3088B4201D3CB00C01A524183088B420A
:1002F80001D38B00C01A524143088B4201D34B00F3
:10030800C01A5241411A00D2014652411046704764
:100318005DE0CA0F00D04942031000D34042534069
:1003280000229C4603098B422DD3030A8B4212D329
:10033800FC22890112BA030A8B420CD3890192115B
:100348008B4208D3890192118B4204D389013AD098
:10035800921100E08909C3098B4201D3CB01C01A6D
:10036800524183098B4201D38B01C01A5241430980
:100378008B4201D34B01C01A524103098B4201D36E
:100388000B01C01A5241C3088B4201D3CB00C01ADB
:10039800524183088B4201D38B00C01A5241D9D2F3
:1003A80043088B4201D34B00C01A5241411A00D274
:1003B8000146634652415B10104601D34042002B70
:1003C80000D54942704763465B1000D3404201B5EF
:1003D800002000F005F802BD0029F8D016E77047A4
:1003E8007047C04690B58FB000AF78600C203B18BE
:1003F800134A1A623B1824220C2199543B182522CF
:10040800072199543B182622012199543B182A2286
:10041800FF2199543B182B226421995401007B1821
:1004280008221A857B687A1813CA13C313CA13C320
:1004380013CA13C303CA03C37868BD460FB090BD7F
:1004480093030000B0B584B000AF786039600E2522
:100458007C197B680121180000F0E8F9030023707B
:100468000F203B1829007A1812781A703B68002B65
:1004780009D13B187A18127807218A431A707B68C9
:100488000022DA614EE03B68012B10D10E23FB18E5
:100498001B785BB2072293435BB2012213435AB223
:1004A8000F23FB181A707B680122DA613AE03B6877
:1004B800032B10D10E23FB181B785BB20722934342
:1004C8005BB2032213435AB20F23FB181A707B68DE
:1004D8000322DA6126E03B68052B10D10E23FB18B6
:1004E8001B785BB2072293435BB2052213435AB2CF
:1004F8000F23FB181A707B680522DA6112E03B684B
:10050800062B0FD10E23FB181B785BB207229343EF
:100518005BB2062213435AB20F23FB181A707B688A
:100528000622DA610F23FB181A787B68012118006C
:1005380000F09AF9C046BD4604B0B0BD90B585B08C
:1005480000AFF860B9603B60BB1D1A80FB68186893
:10055800FB689B880022190001F036F8FB6898694F
:10056800FA23DC00BB1D1A88B968230001F0DCFD02
:10057800C046FB689B69180002F04CFA0300012B87
:10058800F7D1FB689869FA23DC002023FB181A8846
:100598003968230001F020FFC046FB689B691800FA
:1005A80002F038FA0300012BF7D1FB681868FB68E2
:1005B8009B880122190001F007F8C046BD4605B026
:1005C80090BD90B585B000AFF860B9603B60BB1DC9
:1005D8001A80FB681868FB689B880022190000F0E5
:1005E800F3FFFB689869FA23DC00BB1D1A88B96819
:1005F800230001F099FDC046FB689B69180002F0D2
:1006080009FA0300012BF7D1FB689869FA23DC008B
:100618002023FB181A883968230001F085FDC0469D
:10062800FB689B69180002F0F5F90300012BF7D16C
:10063800FB681868FB689B880122190000F0C4FF5A
:10064800C046BD4605B090BD90B585B000AF786096
:1006580039603B68DB045B11FB60FB681A0C0B24F8
:100668003B191A703B191A787B680621180000F0AC
:10067800FBF8052000F06CFDFB681A0A3B191A709C
:100688003B191A787B680721180000F0EDF805205F
:1006980000F05EFD3B19FA681A703B191A787B68FE
:1006A8000821180000F0E0F8052000F051FDC046D0
:1006B800BD4605B090BDB0B584B000AF7860396074
:1006C8003B680C2B01DD0C233B603B68062B01DCEF
:1006D80007233B600F257C197B681E21180000F05A
:1006E800A5F8030023700A2000F032FD3B68DBB256
:1006F8001B01D9B27B191B780F221340DAB20E20E6
:100708003B188A181A703B181A787B681E21180043
:1007180000F0AAF80A2000F01BFDC046BD4604B050
:10072800B0BD80B582B000AF78600A00FB1C1A70BB
:10073800FB1C1A787B680921180000F095F80A203C
:1007480000F006FDC046BD4602B080BD80B584B04D
:1007580000AF78600A00FB1C1A700F23FB180022F8
:100768001A70FB1C1B782C2B02D8FB1C2D221A702C
:10077800FB1C1B78F02B02D9FB1CF0221A70FB1C07
:100788001B78782B0CD8FB1C1B782D3B05211800F7
:10079800FFF73CFD03001A000F23FB181A700FE047
:1007A800FB1C1B78F02B0BD8FB1C1B781E330A2173
:1007B8001800FFF72BFD03001A000F23FB181A700F
:1007C8000F217B187A18127820321A707B181A7841
:1007D8007B680B21180000F047F80A2000F0B8FCED
:1007E800C046BD4604B080BDB0B584B000AF7860E7
:1007F8000F257C197B681E21180000F017F80300EC
:1008080023700E203B187A19127807210A431A70B0
:100818003B181A787B681E21180000F025F80A207A
:1008280000F096FCC046BD4604B0B0BD90B587B098
:1008380002AF78600A00FB1C1A70FB1C1B787F2231
:100848001340DAB20E217B181A700F243B1979185D
:100858007868012200920122FFF770FE3B191B788D
:100868001800BD4605B090BD80B586B002AF78606F
:1008780008001100FB1C021C1A70BB1C0A1C1A7011
:10088800FB1C1B78802252421343DAB20E217B18DC
:100898001A700F203B18BA1C12781A703B18791876
:1008A8007868012200920122FFF78BFEC046BD4600
:1008B80004B080BD90B587B000AFF86008007A60DA
:1008C80019000B243B19021C1A700A23FB180A1C76
:1008D8001A703B191B78802252421343DAB217244C
:1008E8003B191A70FB681868FB689B88002219007E
:1008F80000F06AFEFB689869FA23DB0039190122C7
:1009080001F012FCC046FB689B69180002F082F8EF
:100918000300012BF7D1FB6898690A23FB181B78A1
:100928009AB2FA23DB00796801F0FEFBC046FB6847
:100938009B69180002F06EF80300012BF7D1FB68E1
:100948001868FB689B880122190000F03DFEC0462C
:10095800BD4607B090BD80B582B000AF7860012376
:100968001800BD4602B080BDB0B586B000AFF860D3
:10097800B9601900FB1D1A703B1D0A1C1A80FB6820
:10098800DB697B61FB6801211800FFF75BFD13251C
:100998007C19FB680E211800FFF748FF030023703D
:1009A8007B191A78FB680D211800FFF75DFFFB1D06
:1009B8001A78FB6822211800FFF756FFFB1D1B78E9
:1009C800BA68F8680021FFF775FFFB680321180073
:1009D800FFF738FD13257C19FB6812211800FFF773
:1009E80025FF030023707B191B78082213400DD0C4
:1009F800FB68FF2212211800FFF736FF7A69FB68AF
:100A080011001800FFF71EFD012314E03B1D3A1DDD
:100A18001288013A1A803B1D1B88002B07D17A697E
:100A2800FB6811001800FFF70DFD002303E001200B
:100A380000F08EFBCEE71800BD4606B0B0BD80B50D
:100A480082B000AF78607B6805211800FFF7FAFCD8
:100A5800C046BD4602B080BDF0B585B000AF786035
:100A68007B681800FFF777FF031E00D1B3E07B68AF
:100A780000211800FFF7E6FC0A2000F069FB0F26AA
:100A8800BC197B6801211800FFF7D0FE0300237012
:100A98000A2000F05DFB0E257B1934003A19127804
:100AA800802149420A431A707B191A787B68012110
:100AB8001800FFF7D9FE642000F04AFB7B681A6A29
:100AC8007B6811001800FFF7BFFD7B682A229A5C3B
:100AD8007B6811001800FFF724FE7B682B229A5CC4
:100AE8007B6811001800FFF731FE7B6823220C2178
:100AF8001800FFF7B9FE7B681800FFF775FE7B68E2
:100B080024229B5C1A007B6811001800FFF7D3FDB4
:100B18007B68FF221F211800FFF7A6FE7B19002221
:100B28001A707B6825229B5C1B01D9B27B68262240
:100B38009B5CDB18DAB27B198A181A707B191A7851
:100B48007B681D211800FFF78FFE7B681B8D1B0A31
:100B58009BB2DAB27B6820211800FFF785FE7B681C
:100B68001B8DDAB27B6821211800FFF77DFE260075
:100B78003C197B6840211800FFF758FE03002370DA
:100B88007B1934003A1912783F210A431A707B19ED
:100B98001A787B6840211800FFF766FE7B68012100
:100BA8001800FFF74FFC7B680122DA610A2000F089
:100BB800CFFA25003C197B6842211800FFF736FE62
:100BC800030023707B191B78122B01D1C82304E082
:100BD800CA235B0001E0F823FF331800BD4605B0C7
:100BE800F0BD000090B58DB000AF2B4C3B00180055
:100BF800FFF7F8FB3A00230013CA13C313CA13C341
:100C080013CA13C303CA03C3234BA022D2051A6015
:100C1800214B20229A80204BA022D2059A601E4B9D
:100C280010229A811C4B1D4A1A611B4B04229A827E
:100C3800194B1B4A9A61184BB222FF321A62164BA3
:100C4800242209219954144B252208219954124B26
:100C5800262204219954104B2A22FC2199540E4B28
:100C68002B22822199540C4B0A221A850A4B180010
:100C7800FFF7F2FE0300C82B02D10A4B01221A70BB
:100C8800054B1800FFF7DBFE322000F061FAC04682
:100C9800BD460DB090BDC046900000200004005035
:100CA8002C000020BC00002080B500AF00F0CAF97D
:100CB80000F018F800F0AEF800F06EF8FFF792FFB9
:100CC800064B1968FA235B0005480E22FFF74CFE15
:100CD800FA235B00180000F03BFAF1E7000000205F
:100CE8009000002090B593B000AF14243B19180071
:100CF80034231A00002102F06DF83B1D1800102360
:100D08001A00002102F066F880239B00180000F00A
:100D180079FC3B1902221A603B1980225200DA60E2
:100D280021007B1800221A617B1840225A617B1827
:100D38000222DA617B1802221A627B1800225A62A8
:100D48007B1808229A627B1880229202DA627B184A
:100D5800802292051A637B18180000F093FC031E8A
:100D680001D000F0B5F83B1D07221A603B1D022296
:100D78005A603B1D00229A603B1D0022DA603B1D31
:100D88000221180000F08EFF031E01D000F0A0F829
:100D9800C046BD4613B090BD80B500AF1B4B1C4A82
:100DA8001A601A4B822252005A60184B00229A602D
:100DB800164BE022D200DA60144B00221A61134B62
:100DC80000225A61114B802292009A610F4B102227
:100DD800DA610E4B00221A620C4B00225A620B4B4E
:100DE80000229A62094B0722DA62084B00221A6332
:100DF800064B08225A63054B180001F0DDF8031E64
:100E080001D000F065F8C046BD4680BD2C0000202A
:100E18000030014090B589B000AF0C243B19180090
:100E280014231A00002101F0D5FF274B5A6B264BDB
:100E380001210A435A63244B5B6B01221340BB60B8
:100E4800BB68214B5A6B204B02210A435A631E4B45
:100E58005B6B022213407B607B68A023DB050122C9
:100E68003021180000F0B0FBA023DB050022802110
:100E7800180000F0A9FB3B19B0221A603B190122A7
:100E88005A603B1900229A603B190022DA603A192D
:100E9800A023DB051100180000F032FA21007B18AE
:100EA80004221A607B18882252035A607B18002299
:100EB8009A607B18054A1900100000F021FAC04614
:100EC800BD4609B090BDC046001002400004005065
:100ED80080B500AF72B6C046FEE7000080B582B0AC
:100EE80000AF0F4B1A6C0E4B01210A431A640C4BCE
:100EF8001B6C012213407B607B68094BDA6B084B43
:100F0800802149050A43DA63054BDA6B80235B05C8
:100F180013403B603B68C046BD4602B080BDC0463A
:100F28000010024090B58BB000AF786014243B19D4
:100F3800180014231A00002101F04CFF7B681B687D
:100F48001B4A934230D11B4B1A6C1A4B8021490122
:100F58000A431A64174B1A6C80235B0113403B61E8
:100F68003B69144B5A6B134B01210A435A63114BCB
:100F78005B6B01221340FB60FB6821007B18462253
:100F88001A607B1802225A607B1800229A607B182C
:100F98000022DA607B1800221A617A18A023DB0588
:100FA8001100180000F0ACF9C046BD460BB090BD6A
:100FB800003001400010024080B500AFFEE780B568
:100FC80000AFFEE780B500AFC046BD4680BD80B526
:100FD80000AFC046BD4680BD80B500AF00F09CF8AC
:100FE800C046BD4680BD80B500AFC046BD4680BD89
:100FF8000D488546FFF7F7FF0C480D490D4A0023B9
:1010080002E0D458C4500433C4188C42F9D30A4AB5
:101018000A4C002301E013600432A242FBD301F022
:10102800E1FEFFF741FEFEE700200020000000205F
:1010380010000020B82E000810000020C400002076
:10104800FEE7000080B582B000AFFB1D00221A70D9
:101058000B4B1A680A4B802149000A431A60032087
:1010680000F010F8031E03D0FB1D01221A7001E0E6
:10107800FFF734FFFB1D1B781800BD4602B080BD8A
:101088000020024090B585B000AF78600F23FB18B0
:1010980000221A701D4B1B78002B2BD01C4B1C6890
:1010A8001A4B1B781900FA239800FFF725F803005C
:1010B80019002000FFF720F80300180000F013F9CA
:1010C800031E12D17B68032B0AD8796801235B427F
:1010D8000022180000F0F2F80E4B7A681A600DE052
:1010E8000F23FB1801221A7008E00F23FB180122B6
:1010F8001A7003E00F23FB1801221A700F23FB1844
:101108001B781800BD4605B090BDC0460C000020F5
:10111800040000200800002080B500AF054B1B78B4
:101128001A00054B1B68D218034B1A60C046BD460F
:1011380080BDC0460C000020C000002080B500AF74
:10114800024B1B681800BD4680BDC046C000002089
:1011580080B584B000AF7860FFF7F0FF0300BB6094
:101168007B68FB60FB68013305D00A4B1B781A00CB
:10117800FB689B18FB60C046FFF7E0FF0200BB68F6
:10118800D31AFA689A42F7D8C046C046BD4604B09A
:1011980080BDC0460C00002090B583B000AF0200AF
:1011A8003960FB1D1A70FB1D1B787F2B28D82F4A2E
:1011B800FB1D1B785BB29B08C0339B009B58FA1D34
:1011C8001278110003220A40D200FF2191400A0040
:1011D800D2431A4011003B689B01FF221A40FB1DB5
:1011E8001B78180003230340DB009A401F48FB1DAF
:1011F8001B785BB29B080A43C0339B001A5031E04E
:101208001B4AFB1D1B7819000F230B40083B9B084A
:1012180006339B00D31804331B68FA1D127811009B
:1012280003220A40D200FF2191400A00D2431A400B
:1012380011003B689B01FF221A40FB1D1B78180018
:1012480003230340DB009A400948FB1D1B781C0060
:101258000F232340083B9B080A4306339B00C3180F
:1012680004331A60C046BD4603B090BD00E100E0FB
:1012780000ED00E080B582B000AF78607B685A1E50
:1012880080235B049A4201D3012310E00A4B7A6859
:10129800013A5A6001235B4203211800FFF77CFFE3
:1012A800054B00229A60044B07221A60002318009D
:1012B800BD4602B080BDC04610E000E080B584B0F5
:1012C80000AFB9607A600F217B18021C1A70BA68E7
:1012D8007B181B785BB211001800FFF75DFFC04652
:1012E800BD4604B080BD80B582B000AF78607B6831
:1012F8001800FFF7BFFF03001800BD4602B080BD0D
:1013080080B586B000AF7860396000237B6147E123
:101318003B681B6801217A6991400A001340FB6011
:10132800FB68002B00D138E13B685B68032213405F
:10133800012B05D03B685B6803221340022B30D198
:101348007B689B683B617B695B0003229A401300C2
:10135800DA433B6913403B613B68DA687B695B00B1
:101368009A4013003A6913433B617B683A699A6073
:101378007B685B683B6101227B699A401300DA4312
:101388003B6913403B613B685B681B0901221A40BB
:101398007B699A4013003A6913433B617B683A6959
:1013A8005A603B685B6803221340032B17D07B68A5
:1013B800DB683B617B695B0003229A401300DA43D8
:1013C8003B6913403B613B689A687B695B009A40C4
:1013D80013003A6913433B617B683A69DA603B68FA
:1013E8005B6803221340022B23D17B69DA087B68F0
:1013F80008329200D3583B617B69072213409B0057
:101408000F229A401300DA433B6913403B613B6863
:101418001A697B6907210B409B009A4013003A69BF
:1014280013433B617B69DA087B68083292003969AB
:10143800D1507B681B683B617B695B0003229A4043
:101448001300DA433B6913403B613B685B68032246
:101458001A407B695B009A4013003A6913433B6169
:101468007B683A691A603B685A68C0239B0213403C
:1014780000D192E0504A7B699B0818339B009B5827
:101488003B617B6903221340DB000F229A40130063
:10149800DA433B6913403B617A68A023DB059A4233
:1014A80013D07B68454A93420DD07B68444A9342E7
:1014B80007D07B68434A934201D1032306E0052302
:1014C80004E0022302E0012300E000237A690321FB
:1014D8000A40D20093403A6913433B6136497B691D
:1014E8009B0818339B003A695A50334B1B683B6181
:1014F800FB68DA433B6913403B613B685A688023C9
:101508005B03134003D03A69FB6813433B612A4BE2
:101518003A691A60284B5B683B61FB68DA433B69B0
:1015280013403B613B685A6880239B03134003D0F8
:101538003A69FB6813433B611F4B3A695A601E4A7C
:101548008423D3583B61FB68DA433B6913403B6112
:101558003B685A6880239B02134003D03A69FB68B2
:1015680013433B61144984223B698B50124A802300
:10157800D3583B61FB68DA433B6913403B613B68E6
:101588005A6880235B02134003D03A69FB6813430F
:101598003B61094980223B698B507B6901337B6140
:1015A8003B681A687B69DA40131E00D0B0E6C04673
:1015B800C046BD4606B080BD001802400004005079
:1015C80000080050000C005080B582B000AF786071
:1015D80008001100BB1C021C1A807B1C0A1C1A7014
:1015E8007B1C1B78002B04D0BB1C1A887B689A6173
:1015F80003E0BB1C1A887B689A62C046BD4602B0ED
:1016080080BD000080B584B000AF7860194B1B68BE
:10161800194A13401900174B7A680A431A607A6806
:1016280080239B009A421FD1144B1A6813005B0059
:101638009B185B0012491800FEF75EFD030001339A
:10164800FB6008E0FB68002B03D0FB68013BFB60F4
:1016580001E0032309E0074B5A698023DB001A40A5
:101668008023DB009A42EDD000231800BD4604B069
:1016780080BDC04600700040FFF9FFFF0400002055
:1016880040420F0080B588B000AF78607B68002BBF
:1016980001D10123F3E27B681B680122134000D1CA
:1016A8007CE0C34B9B6838221340BB61C04BDB68AE
:1016B800032213407B61BB69102B02D17B69032B8A
:1016C80002D0BB69082B0BD1B94B1A6880239B0247
:1016D800134062D07B685B68002B5ED10123CEE2A9
:1016E8007B685A6880235B029A4207D1B04B1A681C
:1016F800AF4B802149020A431A6020E07B685A6890
:10170800A023DB029A420ED1A94B1A68A84B80216C
:10171800C9020A431A60A64B1A68A54B80214902E0
:101728000A431A600BE0A24B1A68A14BA1490A4070
:101738001A609F4B1A689E4B9F490A401A607B6843
:101748005B68002B14D0FFF7F9FC03003B6108E04D
:10175800FFF7F4FC02003B69D31A642B01D9032379
:101768008DE2934B1A6880239B021340F0D015E05A
:10177800FFF7E4FC03003B6108E0FFF7DFFC020031
:101788003B69D31A642B01D9032378E2884B1A6882
:1017980080239B021340F0D100E0C0467B681B68A1
:1017A8000222134000D199E0814B9B6838221340F4
:1017B800BB617F4BDB68032213407B61BB69102B45
:1017C80002D17B69022B02D0BB69002B35D1784B43
:1017D8001A688023DB00134005D07B68DB68002B88
:1017E80001D101234BE2724B5B68744A1340190024
:1017F8007B685B691A026E4B0A435A60BB69002B0F
:1018080012D16B4B1B686E4A134019007B681A692A
:10181800674B0A431A60664B1B68DB0A07221340B2
:10182800684ADA40684B1A60684B1B681800FFF773
:1018380029FC031E51D0012321E27B68DB68002BC1
:1018480030D05B4B1B685E4A134019007B681A69ED
:10185800574B0A431A60564B1A68554B802149006A
:101868000A431A60FFF76AFC03003B6108E0FFF7D0
:1018780065FC02003B69D31A022B01D90323FEE160
:101888004B4B1A688023DB001340F0D0484B5B6851
:101898004A4A134019007B685B691A02444B0A43A1
:1018A8005A601BE0424B1A68414B49490A401A608A
:1018B800FFF744FC03003B6108E0FFF73FFC020030
:1018C8003B69D31A022B01D90323D8E1384B1A6894
:1018D8008023DB001340F0D100E0C0467B681B6822
:1018E8000822134047D0324B9B6838221340182BEC
:1018F8000AD12F4B1B6E022213403CD07B689B6998
:10190800002B38D10123BAE17B689B69002B19D0E1
:10191800274B1A6E264B01210A431A66FFF70EFC65
:1019280003003B6108E0FFF709FC02003B69D31A9A
:10193800022B01D90323A2E11D4B1B6E0222134087
:10194800F1D018E01A4B1A6E194B01218A431A6616
:10195800FFF7F4FB03003B6108E0FFF7EFFB020031
:101968003B69D31A022B01D9032388E1104B1B6E64
:1019780002221340F1D17B681B680422134000D176
:10198800C6E01F23FB1800221A70094B9B683822F7
:101998001340202B1ED1064BDB6D0222134000D1D1
:1019A800B6E07B689B68002B00D0B1E0012366E1BC
:1019B80000100240FFFFFEFFFFFFFBFFFF80FFFF5D
:1019C800FFC7FFFF0024F4000400002008000020E7
:1019D800FFFEFFFFAC4BDA6B80235B05134001D1A0
:1019E800012300E00023002B11D0A74BDA6BA64B94
:1019F800802149050A43DA63A34BDA6B80235B0530
:101A08001340FB60FB681F23FB1801221A709F4BD1
:101A18001A6880235B0013401AD19C4B1A689B4BB1
:101A2800802149000A431A60FFF788FB03003B61E5
:101A380008E0FFF783FB02003B69D31A022B01D9A8
:101A480003231CE1914B1A6880235B001340F0D0FC
:101A58007B689B68012B06D18B4BDA6D8A4B012181
:101A68000A43DA651CE07B689B68052B0CD1864B22
:101A7800DA6D854B04210A43DA65834BDA6D824BB4
:101A880001210A43DA650BE07F4BDA6D7E4B0121B9
:101A98008A43DA657C4BDA6D7B4B04218A43DA652D
:101AA8007B689B68002B14D0FFF748FB03003B6161
:101AB80009E0FFF743FB02003B69D31A744A9342DB
:101AC80001D90323DBE0704BDB6D02221340F0D019
:101AD80013E0FFF733FB03003B6109E0FFF72EFB40
:101AE80002003B69D31A6A4A934201D90323C6E02C
:101AF800654BDB6D02221340F0D11F23FB181B78C6
:101B0800012B05D1604BDA6B5F4B62490A40DA63FF
:101B18007B68DB69002B00D1B0E05B4B9B68382207
:101B28001340102B00D178E07B68DB69022B53D17E
:101B3800554B1A68544B58490A401A60FFF7FEFA89
:101B480003003B6108E0FFF7F9FA02003B69D31A8A
:101B5800022B01D9032392E04B4B1A6880239B0484
:101B68001340F0D1484BDB684C4A134019007B689E
:101B78001A6A7B685B6A1A437B689B6A1B021A4372
:101B88007B68DB6A1A437B681B6B1A433E4B0A432C
:101B9800DA603D4B1A683C4B802149040A431A60BD
:101BA800394BDA68384B802149050A43DA60FFF778
:101BB800C5FA03003B6108E0FFF7C0FA02003B6981
:101BC800D31A022B01D9032359E02F4B1A6880231B
:101BD8009B041340F0D051E02B4B1A682A4B2E4936
:101BE8000A401A60FFF7AAFA03003B6108E0FFF712
:101BF800A5FA02003B69D31A022B01D903233EE060
:101C0800214B1A6880239B041340F0D11E4BDA68DD
:101C18001D4B23490A40DA6030E07B68DB69012B01
:101C280001D101232BE0184BDB687B617B69032220
:101C38001A407B681B6A9A421ED17B6970221A403F
:101C48007B685B6A9A4217D17A69FE23DB011A40E6
:101C58007B689B6A1B029A420ED17A69F8239B0320
:101C68001A407B68DB6A9A4206D17B695B0F5A0788
:101C78007B681B6B9A4201D0012300E00023180007
:101C8800BD4608B080BDC04600100240007000404C
:101C980088130000FFFFFFEFFFFFFFFE8C80C11FCE
:101CA800FCFFFEEF80B584B000AF786039607B68D8
:101CB800002B01D10123E9E0764B1B680722134072
:101CC8003A689A421ED9734B1B680722934319003E
:101CD800704B3A680A431A60FFF730FA0300FB605A
:101CE80009E0FFF72BFA0200FB68D31A6A4A93420D
:101CF80001D90323CAE0674B1B68072213403A68DF
:101D08009A42EED17B681B680222134015D07B688B
:101D18001B680422134006D0604B9A685F4BE02191
:101D2800C9010A439A605D4B9B685D4A13401900DC
:101D38007B689A68594B0A439A607B681B68012242
:101D4800134057D07B685B68012B07D1534B1A6847
:101D580080239B0213402BD1012397E07B685B68AB
:101D6800022B07D14D4B1A6880239B0413401FD1C7
:101D780001238BE07B685B68002B07D1474B1A680F
:101D88008023DB00134013D101237FE07B685B686D
:101D9800032B06D1414B1B6E0222134008D10123AD
:101DA80074E03E4BDB6D0222134001D101236DE04C
:101DB8003A4B9B680722934319007B685A68374B54
:101DC8000A439A60FFF7BAF90300FB6009E0FFF7DE
:101DD800B5F90200FB68D31A2F4A934201D90323AD
:101DE80054E02E4B9B6838221A407B685B68DB0006
:101DF8009A42ECD1274B1B68072213403A689A4253
:101E08001ED2244B1B68072293431900214B3A68C2
:101E18000A431A60FFF792F90300FB6009E0FFF735
:101E28008DF90200FB68D31A1B4A934201D9032398
:101E38002CE0184B1B68072213403A689A42EED1EF
:101E48007B681B680422134009D0144B9B68154A11
:101E5800134019007B68DA68104B0A439A6000F057
:101E680029F801000D4B9B681B0A0F221A400E4BE4
:101E78009200D3581F2213400A00DA400B4B1A6015
:101E88000B4B1B681800FFF7FDF803001800BD4650
:101E980004B080BD002002408813000000100240FA
:101EA800FFF0FFFFFF8FFFFF702E000804000020E7
:101EB8000800002080B586B000AF3C4B9B683822F4
:101EC80013400FD1394B1B68DB0A0722134001224C
:101ED8009A4013003B6039683548FEF70DF9030056
:101EE8003B615DE0314B9B6838221340082B02D1DF
:101EF800304B3B6154E02D4B9B6838221340102B2C
:101F080038D12A4BDB6803221340FB60274BDB6880
:101F18001B09072213400133BB60FB68032B0DD15B
:101F2800B9682448FEF7E8F8030019001F4BDB687E
:101F38001B0A7F2213404B437B610DE0B9681C48A4
:101F4800FEF7DAF803001900184BDB681B0A7F223A
:101F580013404B437B61C046144BDB685B0F072281
:101F6800134001337B6079687869FEF7C5F8030090
:101F78003B6115E00D4B9B6838221340202B03D1A1
:101F880080231B023B610BE0084B9B6838221340FF
:101F9800182B03D1FA23DB013B6101E000233B61ED
:101FA8003B691800BD4606B080BDC046001002401F
:101FB8000024F40000127A0080B584B000AF786085
:101FC8007B68002B01D10123A8E07B685B6A002BAA
:101FD80009D17B685A6882235B009A4209D07B68E2
:101FE8000022DA6105E07B6800221A617B68002222
:101FF8005A617B6800229A627B685D229B5CDBB237
:10200800002B07D17B685C22002199547B6818005B
:10201800FEF788FF7B685D22022199547B681B6864
:102028001A687B681B6840218A431A607B68DA68F3
:10203800E023DB009A4202D90023FB6002E0802300
:102048005B01FB607B68DA68F0231B019A4208D0C9
:102058007B68DA68E023DB009A4202D07B680022C2
:102068009A627B685A6882235B001A407B68996889
:1020780084231B020B401A437B681B6902210B4017
:102088001A437B685B6901210B401A437B68996995
:1020980080239B000B401A437B68DB6938210B4087
:1020A8001A437B681B6A80210B401A4311007B6826
:1020B8009A6A80239B011A407B681B680A431A604E
:1020C8007B689B691B0C04221A407B685B6A1021A1
:1020D8000B401A437B685B6B08210B401A437B68F3
:1020E800D968F0231B010B401A431100FA688023BA
:1020F8005B011A407B681B680A435A607B681B684F
:10210800DA697B681B6807490A40DA617B68002244
:102118001A667B685D220121995400231800BD4688
:1021280004B080BDFFF7FFFF80B588B000AFF8604E
:10213800B9603B60BB1D1A801F23FB1800221A7070
:10214800FB685C229B5C012B01D1022340E1FB6808
:102158005C2201219954FEF7F1FF0300BB611623AD
:10216800FB18BA1D12881A80FB685D229B5CDBB2E3
:10217800012B04D01F23FB1802221A701DE1BB6833
:10218800002B03D0BB1D1B88002B04D11F23FB1879
:1021980001221A7011E1FB685D2203219954FB6842
:1021A80000221A66FB68BA689A63FB68BA1D12882F
:1021B8009A87FB68BA1D1288DA87FB6800221A64BE
:1021C800FB68442200219952FB684622002199525B
:1021D800FB6800221A65FB680022DA64FB689A68CB
:1021E80080231B029A4210D1FB681B681A68FB689F
:1021F8001B6840218A431A60FB681B681A68FB68E1
:102208001B688021C9010A431A60FB681B681B68A8
:1022180040221340402B07D0FB681B681A68FB68F4
:102228001B6840210A431A60FB68DA68E023DB0078
:102238009A424ED9FB685B68002B04D01623FB1822
:102248001B88012B3FD1FB689B6B1A88FB681B68B6
:10225800DA60FB689B6B9A1CFB689A63FB68DB8FF0
:102268009BB2013B9AB2FB68DA872CE0FB681B68DB
:102278009B6802221340022B12D1FB689B6B1A88C1
:10228800FB681B68DA60FB689B6B9A1CFB689A63A7
:10229800FB68DB8F9BB2013B9AB2FB68DA8712E0DE
:1022A800FEF74CFF0200BB69D31A3A689A4202D87B
:1022B8003B68013302D13B68002B04D11F23FB1874
:1022C80003221A7079E0FB68DB8F9BB2002BCDD11B
:1022D8004FE0FB685B68002B04D01623FB181B88B3
:1022E800012B41D1FB689A6BFB681B680C33127891
:1022F8001A70FB689B6B5A1CFB689A63FB68DB8F40
:102308009BB2013B9AB2FB68DA872DE0FB681B6839
:102318009B6802221340022B13D1FB689A6BFB685F
:102328001B680C3312781A70FB689B6B5A1CFB688D
:102338009A63FB68DB8F9BB2013B9AB2FB68DA8732
:1023480012E0FEF7FBFE0200BB69D31A3A689A4214
:1023580002D83B68013302D13B68002B04D11F230C
:10236800FB1803221A7028E0FB68DB8F9BB2002B56
:10237800CCD1BA693968FB68180000F0E5FC031E87
:1023880002D0FB6820221A66FB689B68002B0AD1E2
:1023980000233B61FB681B68DB683B61FB681B68CB
:1023A8009B683B613B69FB681B6E002B04D01F23B5
:1023B800FB1801221A7000E0C046FB685D2201216B
:1023C8009954FB685C22002199541F23FB181B7841
:1023D8001800BD4608B080BD90B589B002AFF8605E
:1023E800B9603B60BB1D1A801723FB1800221A70C6
:1023F800FB685A6882235B009A4213D1FB689B688A
:10240800002B0FD1FB685D2204219954BB1D1C8849
:10241800BA68B968F8683B680093230000F028F9A7
:1024280003001CE1FB685C229B5C012B01D10223A9
:1024380015E1FB685C2201219954FEF77FFE030039
:102448003B61FB685D229B5CDBB2012B04D0172348
:10245800FB1802221A70F7E0BB68002B03D0BB1DE3
:102468001B88002B04D11723FB1801221A70EBE0FC
:10247800FB685D2204219954FB6800221A66FB68F8
:10248800BA681A64FB68BA1D442112885A52FB685C
:10249800BA1D462112885A52FB6800229A63FB68CB
:1024A80000229A87FB680022DA87FB680022DA6438
:1024B800FB6800221A65FB68DA68E023DB009A42B1
:1024C80008D9FB681B685A68FB681B6866490A409C
:1024D8005A6008E0FB681B685A68FB681B68802123
:1024E80049010A435A60FB689A6880231B029A4292
:1024F8000FD1FB681B681A68FB681B6840218A4378
:102508001A60FB681B681A68FB681B6857490A4011
:102518001A60FB681B681B6840221340402B07D0D9
:10252800FB681B681A68FB681B6840210A431A602D
:10253800FB68DA68E023DB009A4200D969E031E001
:10254800FB681B689B6801221340012B17D1FB68AD
:102558001B680C331A00FB681B6C1278D2B21A7015
:10256800FB681B6C5A1CFB681A64FB6846229B5A62
:102578009BB2013B99B2FB684622995212E0FEF7E2
:10258800DDFD02003B69D31A3A689A4202D83B68DB
:10259800013302D13B68002B04D11723FB18032217
:1025A8001A7051E0FB6846229B5A9BB2002BC7D198
:1025B80035E0FB681B689B6801221340012B15D18D
:1025C800FB681B68DA68FB681B6C92B21A80FB68B0
:1025D8001B6C9A1CFB681A64FB6846229B5A9BB2C8
:1025E800013B99B2FB684622995212E0FEF7A6FD1C
:1025F80002003B69D31A3A689A4202D83B68013311
:1026080002D13B68002B04D11723FB1803221A7050
:102618001AE0FB6846229B5A9BB2002BC9D13A6943
:102628003968FB68180000F031FB031E02D0FB6814
:1026380020221A66FB681B6E002B04D01723FB1898
:1026480001221A7000E0C046FB685D2201219954FE
:10265800FB685C22002199541723FB181B7818008B
:10266800BD4607B090BDC046FFEFFFFFFFBFFFFFAD
:1026780080B58AB000AFF860B9607A601A00BB1CF8
:102688001A8001237B622323FB1800221A70FB683F
:102698005C229B5C012B01D10223B5E1FB685C2223
:1026A80001219954FEF74AFD0300FB611B203B18EA
:1026B800FA685D21525C1A70FB685B687B611223C3
:1026C800FB18BA1C12881A803B181B78012B11D0F2
:1026D8007A6982235B009A4207D1FB689B68002BCA
:1026E80003D13B181B78042B04D02323FB180222A8
:1026F8001A707EE1BB68002B06D07B68002B03D0E4
:10270800BB1C1B88002B04D12323FB1801221A7041
:102718006FE1FB685D229B5CDBB2042B03D0FB6896
:102728005D2205219954FB6800221A66FB687A68C5
:102738001A64FB68BA1C462112885A52FB68BA1CF4
:10274800442112885A52FB68BA689A63FB68BA1C1B
:102758001288DA87FB68BA1C12889A87FB680022FD
:10276800DA64FB6800221A65FB68DA68E023DB009C
:102778009A4208D9FB681B685A68FB681B68A44919
:102788000A405A6008E0FB681B685A68FB681B68C7
:10279800802149010A435A60FB681B681B68402274
:1027A8001340402B07D0FB681B681A68FB681B683E
:1027B80040210A431A60FB68DA68E023DB009A428A
:1027C80000D87FE0FB685B68002B05D01223FB185C
:1027D8001B88012B00D069E0FB689B6B1A88FB689B
:1027E8001B68DA60FB689B6B9A1CFB689A63FB6842
:1027F800DB8F9BB2013B9AB2FB68DA8756E0FB6835
:102808001B689B6802221340022B1BD1FB68DB8FDD
:102818009BB2002B16D07B6A012B13D1FB689B6BF4
:102828001A88FB681B68DA60FB689B6B9A1CFB685C
:102838009A63FB68DB8F9BB2013B9AB2FB68DA872D
:1028480000237B62FB681B689B6801221340012BF5
:102858001CD1FB6846229B5A9BB2002B16D0FB6802
:102868001B68DA68FB681B6C92B21A80FB681B6CE9
:102878009A1CFB681A64FB6846229B5A9BB2013B70
:1028880099B2FB684622995201237B62FEF756FCF7
:102898000200FB69D31A3A6B9A4207D83B6B0133A3
:1028A80004D02323FB1803221A70A2E0FB68DB8FF5
:1028B8009BB2002BA3D1FB6846229B5A9BB2002BEC
:1028C8009DD185E0FB685B68002B05D01223FB18BF
:1028D8001B88012B00D070E0FB689A6BFB681B68B3
:1028E8000C3312781A70FB689B6B5A1CFB689A634E
:1028F800FB68DB8F9BB2013B9AB2FB68DA875CE02E
:10290800FB681B689B6802221340022B1CD1FB68E2
:10291800DB8F9BB2002B17D07B6A012B14D1FB688D
:102928009A6BFB681B680C3312781A70FB689B6BF8
:102938005A1CFB689A63FB68DB8F9BB2013B9AB217
:10294800FB68DA8700237B62FB681B689B680122AF
:102958001340012B1ED1FB6846229B5A9BB2002BC9
:1029680018D0FB681B680C331A00FB681B6C1278C4
:10297800D2B21A70FB681B6C5A1CFB681A64FB689D
:1029880046229B5A9BB2013B99B2FB684622995258
:1029980001237B62FEF7D2FB0200FB69D31A3A6B74
:1029A8009A4202D83B6B013302D13B6B002B04D116
:1029B8002323FB1803221A701BE0FB68DB8F9BB2F2
:1029C800002B9DD1FB6846229B5A9BB2002B97D1C6
:1029D800FA69396BFB68180000F0B6F9031E07D0D6
:1029E8002323FB1801221A70FB6820221A6600E0D4
:1029F800C046FB685D2201219954FB685C220021D6
:102A080099542323FB181B781800BD460AB080BDD3
:102A1800FFEFFFFF80B582B000AF78607B685D2272
:102A28009B5CDBB21800BD4602B080BD80B588B0A3
:102A380000AFF860B9603B60FB1D1A70FEF77EFBC3
:102A48000200BB6A9B1A3A68D318FB61FEF776FB53
:102A58000300BB613A4B1B685B011B0DFA695343CA
:102A68007B6158E03B68013355D0FEF767FB0200F5
:102A7800BB69D31AFA699A4202D9FB69002B42D181
:102A8800FB681B685A68FB681B68E0218A435A6028
:102A9800FB685A6882235B009A4213D1FB689A68E4
:102AA80080231B029A4205D0FB689A688023DB00CA
:102AB8009A4207D1FB681B681A68FB681B684021AB
:102AC8008A431A60FB689A6A80239B019A4210D154
:102AD800FB681B681A68FB681B681A490A401A6079
:102AE800FB681B681A68FB681B68802189010A4318
:102AF8001A60FB685D2201219954FB685C22002161
:102B08009954032317E07B69002B01D10023FB6153
:102B18007B69013B7B61FB681B689B68BA68134053
:102B2800BA68D31A5A425341DBB21A00FB1D1B780C
:102B38009A4297D100231800BD4608B080BDC04610
:102B480004000020FFDFFFFF80B58AB000AFF86007
:102B5800B9607A603B601723FB1800221A70FEF7F1
:102B6800EDFA02003B6B9B1A3A68D3187B62FEF7BA
:102B7800E5FA03003B62FB681B680C33FB61414BC1
:102B88001A6813009B009B18DA00D31A1B0D7A6A87
:102B98005343BB6168E0BA68C023DB009A420AD19C
:102BA8007B68002B07D1FB691B78DAB217217B18E9
:102BB8001A707B181B783B68013355D0FEF7BEFAB4
:102BC80002003B6AD31A7A6A9A4202D97B6A002BBE
:102BD80042D1FB681B685A68FB681B68E0218A437E
:102BE8005A60FB685A6882235B009A4213D1FB68DB
:102BF8009A6880231B029A4205D0FB689A68802352
:102C0800DB009A4207D1FB681B681A68FB681B68DF
:102C180040218A431A60FB689A6A80239B019A4282
:102C280010D1FB681B681A68FB681B6816490A40C4
:102C38001A60FB681B681A68FB681B688021890199
:102C48000A431A60FB685D2201219954FB685C22E3
:102C580000219954032310E0BB69002B01D1002304
:102C68007B62BB69013BBB61FB681B689B68BA68F8
:102C780013407A689A428ED100231800BD460AB0E4
:102C880080BDC04604000020FFDFFFFF80B586B08E
:102C980002AFF860B9607A60FB685A6882235B000B
:102CA8009A4213D1FB689A6880231B029A4205D086
:102CB800FB689A688023DB009A4207D1FB681B688F
:102CC8001A68FB681B6840218A431A60BA68F8686A
:102CD8007B680093130000228021FFF7A7FE031EE4
:102CE80007D0FB681B6E20221A43FB681A66032371
:102CF80026E0FB685A6882235B009A421FD1FB6872
:102D08009A6880231B029A4205D0FB689A68802340
:102D1800DB009A4213D1BA68C023D900F8687B68EF
:102D2800009313000022FFF70FFF031E07D0FB6874
:102D38001B6E20221A43FB681A66032300E0002357
:102D48001800BD4604B080BD80B586B002AFF860FB
:102D5800B9607A60BA68C0235901F8687B68009343
:102D680013000022FFF7F0FE031E07D0FB681B6E5E
:102D780020221A43FB681A66032327E0BA68F8681A
:102D88007B680093130000228021FFF74FFE031E8B
:102D980007D0FB681B6E20221A43FB681A660323C0
:102DA80014E0BA68C023D900F8687B680093130060
:102DB8000022FFF7C9FE031E07D0FB681B6E202206
:102DC8001A43FB681A66032300E000231800BD4677
:102DD80004B080BD03008218934200D17047197077
:102DE8000133F9E770B500260C4C0D4D641BA41097
:102DF800A64209D1002600F019F80A4C0A4D641BB6
:102E0800A410A64205D170BDB300EB58984701360F
:102E1800EEE7B300EB5898470136F2E7B02E00080A
:102E2800B02E0008B42E0008B02E0008F8B5C04631
:102E3800F8BC08BC9E467047F8B5C046F8BC08BC4C
:042E48009E467047EB
:102E4C003930322F534D2F4C6F52614E2F566572C5
:102E5C00312E30004E6F6465206174203930324D54
:102E6C00487A000000000000000000000000000094
:102E7C000000000000000000000000000000000046
:102E8C000000000001000000020000000300000030
:102E9C00040000000600000007000000080000000D
:042EAC000900000019
:042EB000E100000835
:042EB400B900000859
:102EB800602E00080024F400040000000100000057
:0400000508000FF9E7
:00000001FF
